:1040000000000120C17C0000BD7C0000BD7C0000E0
:104010009B6F0000BD7C0000BD7C0000BD7C0000EB
:10402000BD7C0000BD7C0000BD7C0000BD7C0000AC
:10403000BD7C0000BD7C0000BD7C0000BD7C00009C
:10404000BD7C0000BD7C0000BD7C0000BD7C00008C
:10405000BD7C0000BD7C0000BD7C0000BD7C00007C
:10406000BD7C0000BD7C0000BD7C0000BD7C00006C
:10407000BD7C0000BD7C0000BD7C0000BD7C00005C
:10408000BD7C0000BD7C0000BD7C0000BD7C00004C
:10409000BD7C0000BD7C0000BD7C0000BD7C00003C
:1040A000BD7C0000BD7C0000BD7C0000BD7C00002C
:1040B000BD7C0000BD7C0000BD7C000095D00000F0
:1040C00021D000001DD0000025C7000091D00000C5
:1040D00025D0000045D0000029D00000A5B4000084
:1040E000D9D00000BD7C0000BD7C0000BD7C00007C
:1040F000BD7C0000BD7C0000BD7C0000BD7C0000DC
:10410000BD7C0000BD7C0000BD7C0000BD7C0000CB
:10411000BD7C0000BD7C0000BD7C0000BD7C0000BB
:10412000BD7C0000BD7C0000BD7C0000BD7C0000AB
:10413000BD7C000010B5054C237833B9044B13B196
:10414000044800E000BF0123237010BD10010020CF
:10415000000000007801010008B5034B1BB10349C2
:10416000034800E000BF08BD00000000140100206B
:1041700078010100154B002B08BF134B9D46A3F59A
:10418000803A00218B460F461348144A121A09F050
:104190009CFD0F4B002B00D098470E4B002B00D0FE
:1041A00098470020002104000D000D48002802D08F
:1041B0000C4800E000BF09F059FD2000290002F082
:1041C0002BFF09F03FFD00BF0000080000000120A8
:1041D000000000000000000010010020881C0020EA
:1041E000000000000000000037B50446684680E883
:1041F0000600251D03C885E805002373069B23617F
:10420000BDF81C30A38200232360084B1A6812B942
:104210001C6004E00A4611680029FBD114609888EC
:10422000013080B2988003B030BD00BF300700205D
:1042300007B50379054A0193036806CA009308305D
:104240000223FFF7D1FF03B05DF804FB88E0000014
:1042500070B528252B68ADF50C7DB3F5804F05D3DF
:104260004FF4017420460DF50C7D70BD1B6B002BC7
:10427000F6D05B6A4FF40B7201A900209847044600
:104280000028EFD140F201262B68B3F5804FE7D22A
:104290001B6BB3F5804FE3D29B6A002101A89847BE
:1042A000B042F1D040F20323984218BF0446D9E748
:1042B00041F671320F4B10B5D969DA639A680E4C2A
:1042C00022F44012A04288BF42F480129A600B4A46
:1042D0000B4CD2F81832A04223F0020388BF43F0FF
:1042E000020301F48031C2F8183211B10022014BEF
:1042F000DA6310BD00000340C017530200C007403E
:1043000080F0FA02094B0022996C30B5DC6C234630
:1043100042EA0104220C82701A0A210AC2701A0CA5
:104320001B0E047041700271437130BD0080E00FBC
:10433000202A0B681EBF4FF0FF3191408B43590874
:1043400001F055315B1A03F033319B0803F033332E
:104350000B44017803EB13130A444FF0013103F0CF
:104360000F334B43A2EB13630370704773B5002602
:10437000044602AD05F8016D011D1B222846FFF71A
:10438000D7FF60689DF80730B3EBD06F03D120F002
:10439000784002B070BD28461B2204F108018DF858
:1043A0000760FFF7C5FFA0689DF80730B3EBD06F3B
:1043B00001D1C043EBE74FF0FF30EAE74BF29A221E
:1043C000036810B5B2EB134F044611D19BB2012B19
:1043D0000ED1FFF7CBFF431C0AD04FF6FF72E06807
:1043E000030C93420AD180B2C01A18BF012010BD3D
:1043F000236801330CBF03200420F8E70220F6E70E
:1044000037B5054601F10C04436901A90122204694
:104410009847BDF8043002A941F8083D0122AB6974
:104420002046984703B030BD2DE9F043054689B0DA
:104430009946036908460E461746984704460028E1
:1044400067D1D9F804304FEA53285FEA580804F1DD
:10445000010366D199F8032099F802301203DB02B8
:1044600003F4006302F480521A43B9F80030640385
:10447000C3F30A03134404F460441C442B4B6FEA57
:104480000444039327F07843FF431B2202A901A8A9
:1044900002938DF80480FFF74BFF9DF80420029BE8
:1044A00008A843EAC26300F81D8D1B2201A927F06A
:1044B000784704930197FFF73BFF9DF80320019B8A
:1044C0006FEA144443EAC26305934FF0FF3308A92F
:1044D00041F8044D06930122AB6906F1100098479C
:1044E000AB690446012205A906F108009847AB69AB
:1044F000002818BF0446012204A9301D9847AB6963
:10450000002818BF0446012203A93046984750B935
:104510001CB131462846FFF773FF204609B0BDE8BD
:10452000F0831C4691E70446F3E700BF01009AB20E
:10453000036803F07F03012B03D8406820F07C4020
:104540007047072B8CBFD81F0020704741F671338E
:1045500070B51C4C0122E669E36341F20C03E250A2
:1045600002236061054623610021212006F4803684
:1045700009F06AFC18B90146212009F065FC42F2F5
:104580000C030122E2500EB10023E363431C02D06E
:1045900018B10D4800E00D4870BD0D4B9B680A3303
:1045A00003F01F020123934023F003032B44AB428B
:1045B00001D10020F0E755F8042B0132F7D005486F
:1045C000EAE700BF0000034024E000F021E000F033
:1045D0000080E00F0EE000F0002310B59A4201D1F8
:1045E000002010BD50F8234041F823400133F5E787
:1045F0007047000041F67132044B0121DA6342F248
:104600000C0299500022DA63704700BF000003409B
:1046100041F67132034B0121DA6342F20C020020B1
:1046200099507047000003402DE9F04186464068EC
:1046300000283BD0DEF80070904600243E4657F834
:1046400034500134C5F3130C013501D0614532D02B
:10465000844206F10806F2D13868013031D00025D5
:1046600007F1080606E057F835203046013206F11A
:10467000080627D00135A542F5D1032B16D0DEF868
:1046800000703868C0F30750032823D0002407F1D6
:10469000080608E057F83400B446C0F30750032872
:1046A00006F1080617D00134A542F3D101238EF894
:1046B0000830BDE8F08141EA0351C6E90018BDE8C1
:1046C000F0813846C1F3130141EA0353C0E90038D1
:1046D000BDE8F081BC46C1F3130141EA0353CCE9C4
:1046E0000038BDE8F08100234FF0FF3230B5446858
:1046F0009C4202D10023037230BD016801EBC30567
:1047000041F833206A600133F2E70000EFF31082D2
:1047100072B6034B1A6003680846DB68184700BF8F
:10472000CC0D002070B50025044686B00562E36913
:10473000AB4202D8206A06B070BD666C2068E36B9D
:1047400005225B6901A906FB0500984701A8FFF750
:1047500035FE012898BF236A05F101059CBF01338E
:104760002362E4E7F7B507460E460D467B6C86EA02
:1047700005045B421C40A5EB060001D003B0F0BD70
:10478000FB6B01225B6901A928469847019B013315
:1047900001D10435EAE72046F0E7F0B500250446EC
:1047A0002E4687B0E369B34202D8284607B0F0BD71
:1047B0002368676C052207FB0637E36B01A95B6979
:1047C0003846984701A8FFF7F9FD012809D807F1F5
:1047D00014012046FFF7C6FF636C143B834208BFF9
:1047E00001350136DEE7F0B5046806460C1B416C66
:1047F0000025B4FBF1F487B0F36930685A1E954286
:10480000776C06D3716C306801FB0400143007B07C
:10481000F0BD0134B4FBF3F103FB1144F36B05224B
:104820005B6901A907FB0400984701A8FFF7C6FDD3
:104830000128E7D90135DFE72DE9F04F1446074697
:104840000E469946C36B89B05B69012205A9606871
:10485000DDF848809847FB6B01225B6904A930466C
:104860009847059B5A1C06D10020A360A07560756F
:1048700009B0BDE8F08F01214FF0000EA175217E37
:10488000049A04EBC101CE61A1F820E0606802F057
:104890007F05B042C2F3D31CE9B20CD14FF0FF3315
:1048A000C4F800C02175A360237D043B022B20D8EF
:1048B0000020A075DCE7206803F07F036045207DC1
:1048C00018BF84F816E088421CBF0020A075012B99
:1048D0008CBF0020012001298CBF002101218842CA
:1048E0001CBF0021A175012D00F2D280012BDBD964
:1048F000D1E002F07F02012A0FD8FB6B02225B6934
:1049000006A93046984706A8FFF712FE237D032B21
:1049100069D8DFE803F06363040904A8F4E7CC2155
:10492000227E04EBC2021184684AD35C049D88F89D
:10493000003005F07F02012A88BF0025237E98BF42
:10494000C5F3C16504EBC303012A83F82250B3F811
:1049500020A000F2A380FB6B02225B6906A930460F
:10496000984700230DF1200B0BF8113D202206A9DA
:104970005846FFF7DDFC1A2207A9FFF7D9FC9DF87E
:104980000F30079AB3EB926F0CBF0123002308226C
:104990006375637D03B9A375A37D9BB1BAF1000F65
:1049A00015D07B6CB018594286EA000C1CEA010F46
:1049B0001CBF0021A175591E01405B1A9A4584BF96
:1049C0000023A37594F816B0BBF1000F30D095B951
:1049D000E37D002B75D14FF0000B16E0227E04EB37
:1049E000C2021084A0E7227E062B04EBC2021084D0
:1049F0009AD901239AE7012394F819B0E375BBF122
:104A0000000F24D19D4228D165762AF0030030445E
:104A100010441AF0030F7B6C18BF04305B4286EA27
:104A20000002134203D031463846FFF7DCFEA06097
:104A3000A27D12B1236953442361237E012B0ED83A
:104A400001332376B9F1000F0CD1A07D10E7012DC1
:104A500037D0032D08BFA376BDE79B46D5E70023DB
:104A6000A375F2E7002AF0D0E37D002BEDD0BBF177
:104A7000000FEAD1032DE8D0A1684B1CE5D0CDF89A
:104A80000080012322463846FFF7D6FEA075DCE7FA
:104A9000012B3FF609AF0023A37505E700231B2276
:104AA00004A906A88DF81830FFF742FC9DF81830CD
:104AB000049AB3EBD26F0CBF012300230422637569
:104AC00067E7A27D4FF0010BB4E700BF8ADE00006C
:104AD00013B50C46002100932176134661682246E7
:104AE000FFF7AAFE18B1E37D03B1A07EA075A07DFB
:104AF00002B010BDF0B50546002687B0EC69013C58
:104B0000B44203D80C46204607B0F0BD01B14C1E9C
:104B10006F6C2868EB6B05225B6901A907FB040039
:104B2000984701A8FFF74AFC0128ECD90136214635
:104B3000E4E7F0B504460D46466CE36B006887B0C9
:104B40005B69052201A906FB0500984701A8FFF74C
:104B500035FC012804D801A8FFF708FC07B0F0BD18
:104B600029462046FFF7C6FF0646676C2068E36BC0
:104B700005225B6901A907FB0600984701A8FFF71A
:104B8000F5FB431CEAD0B54238BF0130E6E7436984
:104B9000416CDA1D1439B2FBF1F28069013203EB8A
:104BA000C202043000EB4200DA1CB2FBF1F203EB6C
:104BB000C2030333B3FBF1F3023301FB030070477D
:104BC000214BD3F8F82102401CD1F0B4D3F8FC51AA
:104BD00003F5FC74641BA410022CD3F8006212D0FD
:104BE000032C29D0012C1AD0184C05F10C02646852
:104BF000C5E90040C3F8FC21A96033680C33336079
:104C0000F0BC704770470422104C646868609818C4
:104C10002C601960C3F8FC013260F0BC70471A4682
:104C200008240A4F7F682F6042F8080B5960C3F8C8
:104C3000FC213460F0BC7047044C6468A960C5E98D
:104C40000040C3F8FC31E7E788150020001000E0C1
:104C5000837DDB0701D5808A7047D0E901239B1A49
:104C600044BF828A9B1898B270470000044B5A6D6B
:104C700022B95865A3F858100120704700207047EA
:104C8000D00600200A20D0B50B4CE38C584308F026
:104C90003DFD0646A08C0F4608F038FD0022074B6C
:104CA00008F09EFD02460B463046394608F0C2FE2B
:104CB00008F0A8FF2083D0BDD00600200000F43FFC
:104CC00040F2E243074A10B51468584303FB014120
:104CD000536800F5807001EB50011844116050607A
:104CE00010BD00BFD00600200022134670B58AB068
:104CF000D910415C03F007042141CC0742BF0AA947
:104D0000891801F8283C03F1010348BF0132252B23
:104D1000EED100230D4DD910415C03F00704214171
:104D2000C90707D5E91881F82A300133252BF2D1BC
:104D30000AB070BD93FBF2F102FB11310AAE3144AF
:104D400011F8286CEC1884F82A60EEE7D0060020F1
:104D5000024BD86880B28002704700BF0080E00F2D
:104D60000C4B10B50C4CE41A0C4B1C4424F4FF54AF
:104D700024F01F04FFF7ECFFA04202D800242046D5
:104D800010BD2046FFF71AFB0128F8D904F500549E
:104D9000F0E700BF1000002010010020C321010037
:104DA0007FB502466D460D4B03F110062C46186880
:104DB0005968083303C4B3422546F7D1531E04A9EA
:104DC0000F3211F8014D13F8010F844204D19342C0
:104DD000F7D1012004B070BD0020FBE758DE0000D1
:104DE00070B5154D286810BB144B154CE41A154BC3
:104DF0001C4424F4FF5424F01F04FFF7A9FF84424D
:104E000014D2666BA6B1FFF7A3FF864210D2FFF75C
:104E10009FFF06F1400383420AD83046FFF7C0FFE8
:104E200030B1F36933F0080302D02C60286870BDFC
:104E300004F50054E1E700BF9001002010000020BD
:104E400010010020C3210100BFF34F8F0549064B1D
:104E5000CA6802F4E0621343CB60BFF34F8F00BF18
:104E6000FDE700BF00ED00E00400FA0528231B6801
:104E7000B3F5804F05D21B6BB3F5804F01D2DB6BCE
:104E8000184740F20110704728231B68B3F5804F84
:104E900005D21B6BB3F5804F01D29B6B184740F2D4
:104EA0000110704728231B68B3F5804F03D219689F
:104EB000064A914203D000230370836070470122A9
:104EC00002709A689B694260F7E700BF07B0CD5E49
:104ED00010B50C4630B90448FFF7E4FF034B2360DC
:104EE0000423A380002010BDEC010020F00100206D
:104EF00010B508B3114B1A68918881421CD3998868
:104F00000024814281BF0121126899809A609988AA
:104F10009A682AB904B19A604FF6FF71998009E046
:104F2000884204D00131126889B20124F1E70CB142
:104F300098809A60104610BD0022FBE738070020D9
:104F400037B50D461446FFF7D3FFD8B10369828AFF
:104F500063B14FF6FE718A4208D100206946009085
:104F6000ADF80400984738B103B030BD2B60228003
:104F7000286848B92080F7E7009B2B60BDF8043013
:104F80002380F5E70120EFE70020EDE737B50D4678
:104F90001446FFF7ADFF70B1036973B14FF6FE72AF
:104FA000818A914209D10095ADF8044069460120FB
:104FB000984703B030BD0120FBE70E20F9E7000061
:104FC00037B504460379124A0333019300F14403D1
:104FD000009306CA02231430FFF706F9228A237AC7
:104FE0000192E26804F12C00009294E80600FFF7B9
:104FF000FBF80546237AA4F8450084F8443022796A
:10500000216804F1470008F055FE284603B030BD82
:1050100080E0000070B50E4C0E4B04F11002064605
:105020000D4692E8030083E803001846FFF700F9F5
:105030000222094B18341A7294E80300DE6083E8F8
:1050400003001D821846BDE87040FFF7B9BF00BFDE
:1050500058DE000020150020180500202DE9F04141
:10506000054616468846FFF7F3FDAB8A181A80B24C
:10507000864228BF064637465FB93EB1D5E90132C0
:105080009A4202BFAB7D43F00103AB753046BDE8E9
:10509000F081AB8A2C68A8681C44241AA3B2BB42D6
:1050A0008CBF3C46A4B22246414608F003FEAB68E2
:1050B0002968AA8A23440A44A0449342A7EB040423
:1050C000AB60A7B228BFA960D6E770B50446154605
:1050D0001E4611B3FFF7BCFDA38A181A80B201283F
:1050E00029D9E37D63B1E368628A1A70120A07D096
:1050F0002068A18A013301448B4228BF0346F4E7AC
:1051000000236382A3680222E36004F112012046B7
:10511000FFF7A4FFE37D0133E375324629462046BD
:10512000FFF79CFF638A03446382E37D13B9238AFC
:105130000344238270BD0020FCE72DE9F0411646B0
:1051400005468846FFF784FD864228BF0646B6B26C
:1051500037464FB92EB1AB7DDA0744BF23F00103C8
:10516000AB753046BDE8F081AB8A2C6869681C4499
:10517000641AA3B2BB428CBF3C46A4B2224640464E
:1051800008F098FD6B682968AA8A23440A44A04461
:105190009342A7EB04046B60A7B228BF6960D8E70D
:1051A00070B51E46038A04461546EBB9C27DDAB1D6
:1051B0000123013A0B70C27500F110010222FFF7C2
:1051C000BCFFE37D9BB1228A2946B24228BF32460A
:1051D0002046FFF7B2FF238A1B1A2382E37D13B90F
:1051E000638A1B1A638270BD00230B70EBE7638A2E
:1051F0002382E8E770B50D46A8B9FFF7F1FD446BCF
:10520000FFF7EEFD58B12346084C03F14006224655
:1052100018685968083303C2B3421446F7D1044BE7
:105220002B600423AB80002070BD00BF94010020E0
:10523000B401002038B5202204460D460C30002170
:1052400008F043FD00234FF0FF32A375C4E90025A9
:10525000A260E3756376A376237638BD2DE9F04F1F
:105260000E4600258BB004464FF0FF311046C6F3C2
:10527000130917469A468DF81350FFF7DBFF4E458A
:105280006BD12B46E1688B420DD0A26802EBC300C4
:1052900052F83320551C0DD0C2F31302914509D1A9
:1052A00041684D1C08D1237C002B58D147480BB0D6
:1052B000BDE8F08F0133E6E73846FFF7BBFF0DF19D
:1052C0001303012239462046FFF702FC0028EAD0EA
:1052D0009DF813308AF800300020E8E72368ED1AC3
:1052E000636CB5FBF3F542E04046FFF7A3FF0DF119
:1052F0001303029A41462046FFF7EAFB8646D8B1DF
:10530000B11C03D0D8F80030B34215D19DF813304A
:105310002F4A8AF800303B4602F1280B9446BCE83D
:105320000300DC4518605960624603F10803F5D1BB
:10533000F346DCF800001860D8F8081032E0BBF142
:10534000000FB3D04E45C7D19AF800307A68314685
:1053500004F10800FFF768F9BEE7B31CA3D1E56AC2
:10536000681CBBD1616A2046FFF7C4FB0546B31C2D
:1053700018BF0123DFF858800293636A626C0393BD
:10538000236805A902FB053BE36B05225B695846D0
:10539000984705A8FFF712F80BF1140319464FF0D0
:1053A000000B01934A1C05D0636C019A5B424A4092
:1053B000134299D029462046FFF79CFB039BAB4242
:1053C000BDD0BBF1000FBDD10546D6E70BE000F024
:1053D000E80E00202DE9F04F4FF0FF3300258946FD
:1053E0004FF6FF71044600F1080687B0C0E90913C3
:1053F000C362056205633046FFF775F92046FFF783
:1054000091F900285BD14FF6FF7BD4F82480002768
:10541000D84514BF45460025E3699F4252D3204634
:10542000FFF780F9002833D1B34D2046FFF7B5F9D7
:1054300023E12368E26B606C576901A9052200FB38
:105440000530B84701A8FEF7B9FF0128074603D089
:10545000C31EDBB2012B12D829462046FFF769FB99
:105460000246012F2168676C08BF0132434607FBE3
:105470000511E06BFEF7D8FF2046FFF753F9013521
:10548000E3699D42D5D32046FFF74CF90028BAD0F6
:1054900000254FF0FF384FF6FF73C1462F46C4E991
:1054A0000853E3699F423ED3A5EB0805012D5DD863
:1054B0004FF6FF72636A93426DD1904DB5E704F1E8
:1054C0004008DDE7636CE26B2068D2F814C001A9E4
:1054D000052203FB0500E04701A8FEF76FFF022845
:1054E0000FD0D84515D109F10102606C216804F193
:1054F000400300FB0511E06BFEF796FF2046FFF727
:1055000011F9E3690135B5FBF3F2013703FB1255DD
:1055100082E729462046FFF70CFBB0F1FF3F08BFAA
:105520004846421CE1E7636CE26B2068D2F814C085
:1055300001A9052203FB0700E04701A8FEF73EFF93
:10554000824601A8FEF712FFBAF1010F0CD84845B8
:1055500038BF6762804528BF8046854238BF054610
:105560008146236A0133236201379AE74FF6FF73BE
:1055700000256362E3699D429AD2676C2068E36B01
:1055800005225B6901A907FB0500984701A8FEF702
:10559000EDFE0135EEE7E26B676C2068556901A905
:1055A000052207FB0300A84701A8FEF7DFFE616C98
:1055B0002268636A524D01FB03231433A3624FF048
:1055C000FF332A46E3626FF001010DF10303204629
:1055D000FFF744FE002854D1AB68E362E56A204639
:1055E0002946FFF7BFF8206320B9E16A2046FFF79C
:1055F000FAF8E06229462046FFF7F5F80546A36A67
:105600009D4240D16369656C2046A5F11402DD1C02
:10561000B5FBF2F503EBC5050335B5FBF2F5FFF776
:10562000BCF8AB1C984281463FD2616A2046FFF726
:1056300061FA01268046033504F1400A731E99453C
:1056400012D82368676C052207FB0837E36B01A9B2
:105650005B693846984701A8FEF788FE5346024624
:105660003946E06BFEF7E0FE41462046FFF742FA7E
:105670000136B5428046E1D1224D284607B0BDE84B
:10568000F08FA36AA9E729462046FFF76BF8236B42
:1056900029460344074623632046FFF7A4F805463E
:1056A000002FACD1C4E90B07A9E73046FFF71BF880
:1056B000154DA16AE36A994201D04B1C01D1002526
:1056C000B3E62846FFF7B6FD0DF103030122294694
:1056D0002046FFF7FDF930B1D5E900129DF80330FF
:1056E0003046FEF7A1FFA9684A1CE3D1696820464D
:1056F000FFF779F80146DDE703E000F016E000F07F
:10570000BC0E002013E000F0140F00202DE9F04F34
:10571000354C85B0E369019003F48033029341F680
:1057200071334FEA820BE363012241F20C038A4694
:10573000074689465E46E2500EB930462FE007F52F
:10574000005525F4FF5525F01F056761ED1BE26943
:10575000B54228BF3546520735D4D9F8001009F1B3
:105760000402A161A5F10408B8F1000F0ED10422D2
:1057700041462261212008F067FB80B9212008F012
:1057800063FB60B92F44A944761BD5E7082108467E
:10579000039208F059FB039A78B10423236142F283
:1057A0000C020121104B9950029A0AB10022DA63CF
:1057B000431C0BD070B10D4809E052F8041BA8F14E
:1057C0000408A161D0E74FF0FF30E8E7084805B0D2
:1057D000BDE8F08F5A465146019808F087FA002834
:1057E000044808BF0020F2E70000034024E000F076
:1057F00021E000F010E000F02DE9F04385B088468C
:105800006946044681E80C000C9EBDF83470FFF731
:105810006FFB4FF6FE7905460DB1444505D94FF6AD
:10582000FF74204605B0BDE8F0832B7A9DF8042074
:105830009A421ED10099686808F058FAC8B9002E3B
:10584000EFD02B69AA8AA3B14A4509D10290ADF8DD
:105850000C0002A9984760B9029BBDF80C2043B127
:10586000974206D13A461946304608F03FFA0028DA
:10587000D7D001342D68A4B2CEE70000F0B5354C86
:1058800085B011464FF486701F461646FFF798F90B
:10589000236925462BB94FF48370FFF791F905B0C2
:1058A000F0BD002F08BF082E21D16A4603212068D1
:1058B00002F0D2FD636860615B7A04F1180123761F
:1058C0009DF800300220DA1F53425341627E63F399
:1058D0000002029B6276E361BDF8023063832369B4
:1058E000984701220021206802F0BEFDD7E7002F73
:1058F00008BFB6F5000F03D1002101209847CEE77D
:10590000002306F4A042134309D04FF480714FF4F2
:105910008170FFF755F9236900210320EEE700238A
:1059200006F4A062134308D001214FF48170FFF701
:1059300047F92B690021FF20E0E7002306F0205201
:10594000134319BF012140F2011031464FF4837017
:10595000EDE700BF481300207FB502238DF80C301F
:10596000064B5A8B596903320292186801AA02F059
:1059700077FD019807B05DF804FB00BF48130020D5
:1059800008B500214FF48570FFF71AF90022044B87
:1059900003211A6118680122BDE8084002F03ABAF2
:1059A0004813002013B50D4B01281B880C4CADF893
:1059B0000430ADF8003002BF02238DF80430042318
:1059C00001A9206808BF8DF8003002F0A5FC6946E7
:1059D000206802F0B9FC02B010BD00BF78DE000004
:1059E0004813002037B50022114C437A00926060C2
:1059F000D0E90021206802F0A3FD238CDB050CD543
:105A000063680C4D1A7A2978914206D0012A06D093
:105A1000022A08D063681B7A2B7003B030BD20685F
:105A200002F064FDF6E7206802F066FDF2E700BFD1
:105A3000481300202D070020F0B51A4C85B0637A7A
:105A400018480133DBB2272B88BF25236372FFF789
:105A5000C9FFE768657C627D134C14494FF40073FD
:105A60000232206802F0D7FC6368114A5B7A05F0C5
:105A700001052846D65CFFF795FF0022012300921E
:105A80008DF80C30314602AB2068029702F0C6F95F
:105A900028B1FFF775FFFFF7CFFF05B0F0BD054B4D
:105AA0002361FAE72C010020481300204001002068
:105AB00055E000005166000038B50D4611462C68CF
:105AC0000144A41A224608F020F92C6038BD0000D9
:105AD0002DE9F0470C464849484B0D689246471B54
:105AE0004748484A1B1A48481760034423F4FF53A9
:105AF00023F01F039F428846914676D355443D4488
:105B0000FFF72EF908B9FFF723F9854270D8D8F8C6
:105B100000000AEB0005B5F5806F03D982223B4BEC
:105B20001A7060E03A4E52462146304408F0C2F8FE
:105B3000384BC8F800501A681AB9332D53D9726B14
:105B40001A601B687C199F421DD8A3421BD203F127
:105B50001002A24247D8DB1B1E4433462E4A06F1F0
:105B6000100153F8040B8B4242F8040BF9D12A4878
:105B7000FFF716F910B9254B8422D1E71022FF2137
:105B8000304608F0A2F8254E05F003052448336896
:105B9000641B044053B93840C0F500512144FFF75D
:105BA00065F9346040B1194B8522B9E79C4203D9AD
:105BB000E11A03F50050F2E7D8F800201449521B0F
:105BC000D9F80000FFF760F90446D8F80020D9F8AA
:105BD0000030521B134408490D48C9F80030FFF744
:105BE0006BFF002CDFD1BDE8F087084B872297E7D9
:105BF000064B832294E700BF4013002010010020D1
:105C000010000020780B0020C3210100750B00203C
:105C1000400F0020040E0020F40D0020441300204B
:105C200000E0FFFFEFF3108072B67047054B5B6931
:105C3000C3F38512827003F03F021B0B42700370A6
:105C4000704700BF00C0074007B5014601A8FFF735
:105C5000EDFF9DF8063001220B804FF48073002089
:105C60004B80054B9B680A3303F01F0302FA03F3D2
:105C70004B6003B05DF804FB0080E00FF0B54AB163
:105C8000012530241D4E8D4004FB00640BB341F20E
:105C90001006A55130244443072904F1804404F53B
:105CA000703419D80F2765688E00B74025EA0705BC
:105CB00002FA06F63543656052B9012202FA01F193
:105CC00030220E4C02FB0040A3B141F21003C15040
:105CD000F0BD42F21006DCE70F2701F18045083DD8
:105CE000E668AD00AF4026EA070602FA05F535433F
:105CF000E560E1E742F21003E9E700BF00C00340BE
:105D0000EFF3108072B6704700B962B670470000BA
:105D100010B5034CA01DFEF7E7FF0023236010BD64
:105D2000D40D002010B5094CB4F80710A079FEF787
:105D3000C7FFA368B4F80D10054AC3F30F2393847B
:105D4000D184FEF79FFF0023236010BDD40D0020F7
:105D5000D0060020034B044A9979117500221A607D
:105D6000704700BFD40D0020D0060020FFF7CCBF45
:105D700008B5C36800209847024B1868BDE8084082
:105D8000FFF7C2BFCC0D00202DE9F04FB74F89B00F
:105D90003B7806468946039203F0FF0B002B37D170
:105DA000FEF7DEFF8246FEF7D3FFBAF1000F00F0E8
:105DB0001081AF4BA0F50055D3F80080C3F800B0B8
:105DC000AC4BA5EB0A0593F834101C4600297FD094
:105DD0001A68924540F0FD805A68954240F0F9807B
:105DE0009968A54A914240F0F480DA68062A40F0AA
:105DF000F08040F26C725969914240F0EA80D96BB0
:105E00009E4A914240F0E580C3F818B001233B70F0
:105E1000984D95F83430002B00F0DB8046F4802854
:105E2000974E012105F13C00FEF770FC06AB3246AF
:105E300041462846FFF712FA0446002840F0D08079
:105E40009DF81830032B00F0CB80022B00F0CB80A4
:105E50003769E86BFFF78CFF002C40F0BA80039B9A
:105E60001B78BB42C0F0B58095F834300293002B0C
:105E700000F0AF8001218348FEF748FC0DF11303C9
:105E80007F4A41467B48FFF7E9F9044698B99DF8F7
:105E90001330012B40F014813369BB42C0F00A81FA
:105EA000D6F804B0DFF8CCA10097009ADAF83C30BD
:105EB000002A40F09A806F4BD86BFFF759FF002CF7
:105EC00040F08780039B1F70029809B0BDE8F08FF7
:105ED000402203F11000D3F838B007F0F6FE40F28C
:105EE0006C736361644B04F10800A3600623E360F4
:105EF000C4F838B0C4E900A5FEF7F5FB5F4B04F128
:105F00004000E363FFF7A0FE002867D1626C002A1F
:105F100064D06368B3FBF2F3E36194F84330002B81
:105F200057D0656C002D54D0E369002B51D0226806
:105F3000B2FBF5F305FB1323002B4AD1D4F804A0E0
:105F4000BAFBF5F305FB13A3002B42D14948FEF73A
:105F50001EFE82453DD340F634726369CC3B9342CA
:105F600037D8B5F5007F34D303214648FEF7CEFB82
:105F7000D4E90001E36B1B6898470546E36B0220F8
:105F8000DB689847D5B941463A48FFF723FA3E4BBC
:105F90000546984204D141463648FFF71BFA0546AC
:105FA00065B9636C3348A3F11408236A03FB08F84E
:105FB000FEF7EDFD354B804538BF1D46B5FA85F33C
:105FC000E06B5B0984F83430FFF7D2FE002D3FF41C
:105FD0001DAF0023039A0293137075E700239BE71C
:105FE00000272B4C35E7042733E75B69012205A91D
:105FF000584698472249059B0968C3F3D31291423A
:106000005AD103F07F03012B44D905A8FEF790FA7B
:106010004FF004080646009B9E424FD8B208D84471
:1060200046D0EB6B49465B694046984726F0030330
:1060300006F00302019298449944019B6BB1DAF88F
:106040003C3001225B6906A9404698474846019AC0
:1060500006A907F02FFE019B9944009B59469B1B04
:1060600050460093FEF7BFFB83461EE7380E002024
:106070000C040020400E0020080E002038E0000034
:10608000900E00207C0E002013E000F002E000F0F3
:106090000BE000F0DAF83C3002225B6906A95846B2
:1060A000984706A8FEF744FA4FF008080646B2E7FC
:1060B0000196C2E7054CFEE6054CFCE6054CFAE607
:1060C000054C064A022B08BF1446F4E611E000F026
:1060D00022E000F023E000F00BE000F00CE000F024
:1060E0002DE9F04106460D4614460C4F0CB9BDE8AB
:1060F000F081EFF3108872B623462A4631463846BF
:10610000FEF7E3FF03464046FFF7FEFD002BEDD010
:10611000E41AA4B21D440026E8E700BFB00C00203A
:10612000002313B501F1080421461A46ADF80430E6
:10613000ADF80600083151F8100C70B90BB1ADF88C
:106140000420042201200DEB02010834FFF7C8FFF0
:1061500054F8101C39B902B010BD51F80C3C1A4467
:1061600092B20123E6E734F80C2C0020EDE70000A2
:106170007FB500230130CDE90433064BCDE90101A1
:106180006946042000930392FFF7CAFF07B05DF849
:1061900004FB00BFDA0100202822136810B5B3F514
:1061A000804F0ED2EFF3108072B6002407490B78AF
:1061B0000C70FFF7A9FD3BB1BDE8104013681B6AE6
:1061C00018474FF4817010BD1846FCE7D00D002031
:1061D00001282DE9F34740F03E818B88012B40F0E8
:1061E0003C810B681B7813BB9E4A9F4C13609F4AEF
:1061F00013609F4A13609F4A13609F4A13609F4A2F
:1062000013709F4A13609F4A13602278022A01D1BB
:10621000FFF7C2FF0123237000249B4B1C709B4B94
:106220001C709B4B1C70204602B0BDE8F087032B0E
:1062300040F0FE80964BDFF830921C78002C4ED157
:1062400099F80030002B00F0E7808C4B1B78082B6E
:1062500040F08380834B1868984668B928252B68DE
:10626000B3F5804F62D34FF4017041F20804A042AD
:106270000CBF8624802432E010F003060EBF2646B1
:10628000C6F10406F6B200EB060ABAF5806F00F21A
:10629000C980804B3246FF211844794F07F015FD25
:1062A0007D4A3B6812680AEB03019142C8F800A0DE
:1062B00000F2BC806D4A15681D445544DFF8B8A152
:1062C00025F4FF55DAF8000025F01F0585420CD9AA
:1062D000291A00F50050FEF7C9FD20B185240023DE
:1062E00089F800309FE7CAF8005028231B68B3F5EF
:1062F000804F18D21B6BB3F5804F14D21D69654ACD
:10630000D8F8003039680020A84705463B68D8F81F
:106310000020544913449E1B5E483E60FFF7CCFBAF
:10632000002D9BD0DAE74FF48175EFE7FDF790FF82
:1063300000289AD12B680190B3F5804FCED21B6B09
:10634000B3F5804FCAD29B69012101A89847002864
:10635000C4D101224D4B1A70C1E7002B5ED04A4BCD
:106360001B78002B5CD0474E336843B9414B102259
:106370004A491868FEF788FD0028B0D0AEE713F050
:1063800003021CBFC2F10402D2B29F18B7F5806F9E
:1063900048D84348FF21184407F097FC414A424B34
:1063A00037609B1A414A1344314A23F4FF5315685E
:1063B00023F01F03AB42904636D82F44FEF7D0FCA3
:1063C00008B9FEF7C5FC874230D833682A4F1D4410
:1063D00025F4FF55386825F01F05854208D9291A8C
:1063E00000F50050FEF742FD00287FF477AF3D60D6
:1063F00032682B49D8F80000FEF746FD0546D8F86C
:10640000003032681F4913442548C8F80030FFF7B0
:1064100053FB002DAAD061E7812460E784245EE766
:1064200080245CE782245AE7872458E7832456E7D0
:10643000042B14D1132302211D4C637020462170BC
:10644000FEF714FC1B4A1C4B128905329A801B4A2A
:106450001A6062789A710024E5E60D24E3E60624CA
:10646000E1E600BF700B0020760B002080150020B5
:10647000780B0020040E002044130020D4010020DB
:106480007C0B002040130020740B0020E101002051
:10649000750B00207007002084150020F40D0020EB
:1064A000400F00201000002010010020C321010037
:1064B000E80D0020D0060020D40D00204D6B000018
:1064C00028231A6810B5B2F5804F0ED2EFF3108072
:1064D00072B60124074A11781470FFF715FC39B918
:1064E000BDE810401B68DB6918474FF4817010BD90
:1064F0000020FCE7D00D00200B4A08B5937E4FF03A
:10650000005443F0400393760022084B1A70084B66
:106510001B782BB1FFF7D4FF064B2360FEF794FCEA
:106520002360FEF791FC00BFD00600202C0700205E
:10653000E101002002020FF010B5134CA37E5B06B0
:1065400021D4FFF71DFA40F2E24225202168A38CF6
:1065500002FB031294F84F102260A27A0A4492FBC5
:10656000F0F100FB11220A21A2722289013222815C
:10657000626801FB03236360238B5A1E228313B9D5
:106580000820FFF7B9FF10BDD00600202DE9FF411C
:10659000294C40F601002189FEF712FBA37E13F07F
:1065A000400242D143F0010303F0FD0362F3820392
:1065B000224AA376136823B121899288914200D19F
:1065C0009847A37A1E4F234493F82A301D486375D9
:1065D000FFF708FAD4E900547B6864085B7A1A4A2A
:1065E0002E1B012012F803806435FFF7DBF90096BB
:1065F0000026254401246A46414633463868029500
:106600008DF804608DF80C608DF80D408DF80E60EB
:1066100001F02EFC054622463146386801F024FF81
:1066200035B1FFF789FFFFF7B1FF04B0BDE8F08196
:10663000064B3B61F9E700BFD0060020D40D0020D7
:1066400048130020DC06002055E00000B56700007C
:1066500002282DE9F0411FD002D8012807D0FEE71B
:10666000032800F09C80FF2800F09980F7E74D4C4C
:10667000637C980707D5FFF783F9FFF7DDF9637CA3
:106680006FF341036374637C990701D4DA0764D420
:10669000BDE8F041FFF7D0B94B784C68DB077ED5F9
:1066A000227802F00F07032F59D0052F77D13E49EA
:1066B00004F108008B7B03F00103B3EBD21F4CD134
:1066C0000622083107F012FB8046002845D1FFF76B
:1066D00057F9FFF741F9354D414606465C222846F9
:1066E00007F0F3FAAB7E2F8343F02003AB76627E94
:1066F000237E012743EA0223AB84627F237F04F1D8
:106700001E0043EA0223EB8494F82330C3F304030E
:1067100085F84F3094F82330C3F3421385F8503096
:106720001B232B85FEF7E0FAD4F80E30E27CEB60F9
:10673000A37C2E6043EA0223227D2F7543EA0243A5
:106740002B6195F84F30607DAB72E18A3944FEF7DA
:10675000B7FAFFF71BFF164B1F70BDE8F081124D13
:1067600004F10800AB7B03F00103B3EBD21FF4D1BB
:10677000062205F1080107F0B9FA0028EDD1094C0D
:106780004FF4007394F83D2004F13C010232286874
:1067900001F041FE637C43F002036374DDE7FFF721
:1067A000EFF875E72C01002048130020D0060020E8
:1067B0002C07002002282DE9F7430F460BD003D801
:1067C000012800F0B281FEE7032800F0B681FF281F
:1067D00000F0B381F7E748784E6810F00104BA4D35
:1067E00061D14FF0FF3140F60300FEF7E9F926468C
:1067F000AB7EB64C13F0200F12D0696D6FF34513CA
:10680000AB76002900F09F80237895F8582043F05C
:10681000030323706270A01C07F04CFA00236B6521
:10682000AB48FEF715FA003018BF0120AA7E237886
:1068300060F34102C2F30011AA7661F38203C2F34E
:10684000C00262F3C30360F304132370218840F68F
:106850000200FEF7B5F96278DFF8988202324FF451
:1068600000739A49D2B2D8F8000001F0D4FDAB7E93
:106870007C68D90709D56FF30003AB7600236B6002
:10688000FFF76AF82860FEF7FDF94EB1237803F0B0
:106890000303022B00F031816DD8012B00F02C8115
:1068A00003B0BDE8F083318840F60300FEF788F9B5
:1068B0003378A97EC3F3001396F8008063F3820156
:1068C000A976C8F3C003C1F300118B4206D108F0CA
:1068D0000303022B05D019D8012B31D000263446F2
:1068E00015E0A146767896B17A48848AFEF7B0F929
:1068F000201A80B2B9F1000F04D0022892BF002004
:10690000023880B286428CBF002401242646AB7E2A
:10691000C8F38008C3F3C002904507D082F001029B
:1069200062F3C303DBB243F02003AB76002C3FF4E9
:106930005FAFAB7E81F0010161F30413AB7657E7E3
:106940004FF00009CEE795F82830A21C0DF10701A1
:106950005F48FEF725FCC0B258B19DF80730002B08
:106960000CBF012202222378607062F301032370BE
:1069700056E70122F7E7A378022B65D011D8002B48
:106980004DD0012B38D0544A127822B1162B7FD02B
:10699000182B00F08C8007225048022102704370AF
:1069A00027E00C2B18D0142B56D0082BEBD1B8F8BD
:1069B000201054F8035FC8B205EA0002474801F40A
:1069C0007F4142EA010504460921002304F8011B26
:1069D000C0F8015063600CE040484FF0FF32037094
:1069E0000123827043700222037100230621C270CA
:1069F0004371FEF73BF953E7617A237A384A43EA59
:106A0000012393801346374943F8061B54F8031FAC
:106A1000C2F80610A2889A80A2799A7140E7627B38
:106A2000237B2F4943EA02238B800B462E4A43F8EF
:106A3000062B54F8032FC1F8062062685A60228999
:106A40001A81A27A9A722BE72A89254B05329A80FD
:106A5000264A1A60E278E0E7B4F80530B4F803207B
:106A6000DB08934228BF13462B8515231B480021C2
:106A70006FF004046FF027020370072381708171A7
:106A80004470C27003714471C27103720921B0E78E
:106A90002279E3781148134003F00303022B18BF57
:106AA000012317224370027083700321A1E76279EA
:106AB000A1790B4B42EA01229A800D4A1A60D4F860
:106AC0000320C3F80620EBE6D00600208C17002038
:106AD000B00C0020980B0020C80D0020E80D00200D
:106AE000D40D0020115D0000255D00004D6B0000FD
:106AF000555D00004813002000261248A51C818A1D
:106B0000FEF7A6F8081A647880B226B1022892BF70
:106B10000020023880B2A3B283423FF6C1AE2A46BB
:106B200031460848FEF7D1FABAE6074B9B7E9A0732
:106B30003FF5B6AE5B073FF5B3AEFFF7FDFCFFF7E1
:106B400025FDADE6980B0020D006002008B5024BCD
:106B50009879FFF7D1FC00BFD40D00202DE9F04F4C
:106B6000012891B040F004828A88002A00F0028255
:106B7000A44B93F800A09846BAF1000F00F0FC81F6
:106B8000A14B1C781E465CB9A048057802903DB91F
:106B90009F4D28681718B7F5806F05D982241C709F
:106BA000204611B0BDE8F08FDFF8809209684844B4
:106BB00007F080F8BAF1020F2F6034D0032FEFD91D
:106BC000944F3846FEF76EF93B78D9F80020012B38
:106BD0003FD17B68190E012903D1C3F307430A2B68
:106BE00044D98D4B9A4237D1BB68DA033CD5022396
:106BF00088F80030FFF764FC28231B68B3F5804F4A
:106C000007D21B6BB3F5804F03D29B6809A9002004
:106C10009847824B099A1A60814B0A9A1A6098F831
:106C20000030022BBCD17F4A13789046082B40F0ED
:106C3000B6807D482B680168794F03F0030A5A1823
:106C40003F68A2EB0A02BA42814611D9832434700C
:106C5000A6E7714B9A4207D0842333703378002B18
:106C60009ED033701C469BE78623F6E78823F8E71F
:106C70006A4ADFF8C4B11768DBF800001F440F440C
:106C8000A7EB0A0727F4FF5727F01F07874209D908
:106C9000391A00F50050FEF7E9F808B18524D6E767
:106CA000CBF8007028231B68B3F5804F74D21A6BA1
:106CB000B2F5804F70D22B681769A3EB0A035B4AC9
:106CC000D9F800100020B84707462A68D9F80030E4
:106CD000A2EB0A0213444E495448C9F80030FEF7AB
:106CE000EBFE002FDAD198F80030002B7FF458AF7C
:106CF0002B687F2B7FF654AF4D4FDFF840B13868DB
:106D0000C0B928231B68B3F5804F0ED209A8FEF73F
:106D1000C9F80A9BC3F307421B0E6FD0012B68D141
:106D20000A2A66D86AD14FF40370CBF8000006F047
:106D3000D5FF38604FF02809D9F800303868B3F52E
:106D4000804FDBF80010A9D29B6A98470028A5D194
:106D5000D9F80030B3F5804F1CD22A6806A8D7F8BE
:106D600000A00392FEF79EF8079B190E12D001298E
:106D7000039A03D1C3F307430A2B0BD9282305A990
:106D80001B680091D3F83490284909AB5046C84796
:106D9000002855D084245AE74FF4817795E7002BDB
:106DA000A1D021492B680A681A440A60204A106859
:106DB00028221268B2F5804F11D2D76A1D491B4AAA
:106DC000B84707462A6812491848FEF775FE40F290
:106DD00003239F4206D10123029A1370E0E640F29A
:106DE0000227EFE740F201239F423FF47CAF80246B
:106DF0002DE728231B689B6B984796E74FF4C070DC
:106E000093E700BF760B0020750B0020740B002069
:106E1000700B0020F8010020EB17A603801500205E
:106E200084150020D40100207C0B00207007002076
:106E3000900B0020800B002044130020940B0020B6
:106E40009DF8243088F800300393FDF7C9FF039BB9
:106E5000814600284DD0D0F834A0002B3FF4A0AEDE
:106E600000230693042310AA02F82D3D06A935201D
:106E7000FEF78AFF069BDB074DD598F80030082BFC
:106E800039D05346BAF1000F36D1B9F1000F45D1D0
:106E90004FF02809394BDFF8FC803868C8F8043017
:106EA000D9F80030DBF80010B3F5804FBFF4F6AE30
:106EB0009B6A984700287FF4F1AED9F80020386823
:106EC000B2F5804F2B6850D2D76A41462C4AB8475A
:106ED00007462A682B492A48FEF7EEFD40F20323B5
:106EE0009F423FF478AF40F201239F427FF47FAF8F
:106EF00056E68246B1E7244B10220CA903F1280084
:106F0000039306F0F3FE20B9039B0A9A1B6A9A4288
:106F100001D889249BE6B9F1000F12D04FF400513B
:106F20004846FDF7A3FF00287FF4B8AE2AF4FF50CF
:106F30004FF4005120F01F00FDF798FF00287FF468
:106F4000ADAE98F80030082BA2D1104B104A18684B
:106F50004FF4005120F4FF5323F01F031360FDF79B
:106F600085FF00287FF49AAE1AE640F20227B0E7C8
:106F7000002415E60D2413E6812411E6D15A000001
:106F800070070020700B002068DF000080150020D3
:106F900044130020800B0020FEE708B5FDF754FFE6
:106FA0000048704700F04902084B1B6F03F00703CD
:106FB000022B04D0032B06D0012B02D0FEE704489D
:106FC0007047044870470448704700BF0080004085
:106FD000C0EA2101002D310100F0490208B5FFF798
:106FE000E3FF044B1B6FC3F301330133B0FBF3F03A
:106FF00008BD00BF00800040044B054A9A60D3F8EA
:10700000882042F47002C3F88820704700ED00E049
:1070100000400000000000004FF040232DE98048B0
:10702000D3F89430ABB013F0400F22AF1BD14FF028
:107030000053002238461A60FDF734FFFDF7D0FEFA
:10704000C0B1446BFFF73CFA249B580740F1F08332
:10705000FDF7C6FE28231B68B3F5804FC0F01484EB
:10706000FFF79AF806E04FF000531A68022ADED1C3
:1070700000221A60BFF34F8FBFF36F8FB34AB4483B
:10708000536AB44C23F480335362B34B84425A683E
:1070900022F001025A60196B16BF20F01F02AF4A9E
:1070A000203A21F0FF0141F0A001B2F1005F196325
:1070B00009D3AB4DAB4E296842F001029960013112
:1070C000DE601A61296084420CD0A548A64A016896
:1070D00022F01F0242F003029960DA60A34A0131F4
:1070E0001A610160BFF34F8FBFF36F8F05225A60A3
:1070F000964A536A43F480335362BFF34F8FBFF312
:107100006F8F3846FEF792FD994B9B6DD90318D4CB
:10711000984A136823F4FF0323F4FE4343F4BC139B
:1071200043F4A063136052F8043C23F4704343F427
:10713000404342F8043C52F8043C43F4E06342F814
:10714000043C9DF88930012B0FD19DF8883063B93C
:107150004FF000531B68884B1B68884B1B68884B9B
:107160001B68884B1B68884B1B68884BD3F88020B2
:1071700042F00302C3F880201B6F03F00703032BC8
:107180003CD045F60E027A4B0221C3F8802041F232
:107190002802995042F22802012199509A6DD20397
:1071A000FCD47B4A7B491A617B4A9A611A6A22F0B5
:1071B0000D021A629A6A22F0330242F001029A62C8
:1071C0006B4A1346906D31EA0000FBD141F2280171
:1071D000022050509A6D5600FCD41A694FF00041BD
:1071E00022F4700242F400121A6141F2180299501E
:1071F00042F22802022199500121995041F22803BC
:107200004FF001085A4D614CAE6A644845F803805E
:10721000FDF74EF8236F06F0020643F48063236700
:10722000236F23F0070343F003032367FFF7D6FE22
:10723000FDF73EF8FFF7D2FE594A236F904294BF04
:107240000020012023F4806343EA802323671EB9D2
:1072500042F2280345F8038001234C4A514DC2F8FD
:1072600080326B60504B04241B6C2AAA2B660023CF
:1072700002F88C4D09A935200993FEF785FD0623F8
:107280008DF81B30099B8DF81A4013F4803F0BAC2E
:1072900000F003832B6E8DF82C302B6E8DF82D3083
:1072A0002B6E8DF82E302B6E8DF82F302B6E8DF8C7
:1072B00030302B6E63F03F038DF831309DF8323063
:1072C00043F001038DF83230384B5C6000244FF4FA
:1072D0008071374B374A5961C3E900229A601C829A
:1072E000354A364B3846C3E900229A60596120225C
:1072F00021461C8206F0E9FCB42101238DF88B1095
:107300002F498DF88A3023918DF892305A218DF8CB
:107310009A30402308228DF893108DF89B3029492C
:10732000294B38468DF889208DF891208DF89920C9
:107330002591279300F0DAFC2448254B2146036071
:10734000244B254E436000F04BFD47E000ED00E08C
:10735000C00000200801002090ED00E00080012026
:107360001C1500200300002027010020E17F0120E0
:1073700000C0004034C000400040002000800020D9
:1073800000C00020000001200040012000800040DB
:107390002008B00B030001403C8C8C0300B4C404F3
:1073A00080F0FA0200C001A80080E00FE401002094
:1073B000B00C0020C80C0020B00B0020980B00205F
:1073C00094DE00001CDF0000D8DE000078130020EF
:1073D0007D5800006C13002048130020F3A3D3E96C
:1073E00000233060CDE900234FF0FF334FF0FF3230
:1073F00000F0AEFF02224FF0FF31306800F0B5FF21
:10740000BF4B39462293306803F50033249423930D
:1074100000F09EFDBB4DBB4930682C7000F0D0FFE2
:1074200010B10134032CF6D1B74C306801F05AF892
:10743000B4F900202978306800F068FC0146306813
:1074400000F0A8FF6468DFF86CA3002C40F03F82D6
:107450005046FCF757FFB37B64F30003B37310226D
:10746000AA4BAB4C83F82123002183F8222304F19B
:107470000A0083F8262383F8252383F8232383F83F
:10748000202383F824235A2206F01FFC42F21073B3
:10749000A04DE360A04B4FF49072C4E90053252344
:1074A0006372012332849D4A4FF0000913701B223E
:1074B0009B4DDFF804832A802AAA02F8903D0DF143
:1074C00019013E202372C8F80090FEF75DFC58B108
:1074D0009DF8193039463068CDF88890C7F8049087
:1074E0008DF88A3000F03EFF11232AAA02F8913D60
:1074F00015A93620FEF748FC20232AAA02F8923D5F
:1075000039463920FEF740FC80BB864B9DF817209A
:1075100018681B7922903B71002A00F0E1811B2A38
:1075200028BF1B22531D8DF8163015A9531C0DF1D1
:107530008D008DF88B3006F0BDFB1AA8FCF7E2FE3B
:10754000794A9DF8163012882AA9FA529A1C51FAE3
:1075500082F200211A9802F8201CBDF86C10093341
:1075600042F81F0C22F81B1C8DF8163020232AAA83
:1075700002F8933D1AA93A20FEF706FC48B96B4B76
:107580001A889B78ADF868208DF86A3003238DF84F
:10759000153000224FF00209654B6648C3E900220E
:1075A000654B80F804900360FCF742FE6348644B2F
:1075B00080F80490036010230372FDF701FD614819
:1075C000614B80F804900360604B80F80890C360C2
:1075D000A0F81090CDE900394B4690E80600143031
:1075E000FCF702FE9DF81710002900F0878115A80E
:1075F0004FF01009FDF70EFD5548564B80F80490EA
:107600000360FCF715FE5448544B4FF6FE7B0360B5
:107610000823534AA0F810B0C26080F804900372A7
:107620000393FDF7CDFC4F484F4AA0F810B002601D
:107630000C224FF0020B02724C4A80F80490C26098
:10764000FDF7BEFC4A484B4A039B02604A4A80F859
:107650000490C260038280F808B0FDF7B1FC47488F
:10766000474B80F804900360464B80F808B0C36035
:1076700001230382FDF7A4FC4348444B80F80490A7
:107680000360434B80F808B0C3604FF6FE7303827B
:10769000FDF796FC3F48404B80F8049003603F4B59
:1076A00080F808B0C3604FF6FE730382FDF788FCD4
:1076B0003B4B1F4A1A604FF6FF729A809DF81620C6
:1076C000202A05D8931D63753946364806F0F2FA2C
:1076D0009DF81520202A06D8931D84F83D301AA95C
:1076E000314806F0E7FAFEF74BF9227C637C002A6A
:1076F00040F0078143F0010360E000BFAFF300807A
:107700003C00940012000020E401002000E100E0B1
:107710002C010020D6BE898E55555500C80D00207D
:10772000D6010020A8DF0000B2DF00007ADE0000F2
:107730003007002040150020B5DF00007005002054
:10774000B8DF000044070020BBDF00007EDE000041
:1077500060150020BEDF0000C8050020CFDF00005C
:10776000D161000020060020E0DF00005D6B00001A
:1077700068040020F1DF000060DF000078060020D0
:1077800002E0000054E00000C004002013E000000C
:10779000D14E00001004002024E00000F55100004C
:1077A000380700204801002070010020085580287B
:1077B0000000000050130020080400206374237DA3
:1077C00062F30303B27B02F0010262F386132375B6
:1077D000637D0BB906236375BAF80410BA4BB06821
:1077E000C4F816009980042194F83C3061F3030337
:1077F00062F3861384F83C3094F83D3013B90623C5
:1078000084F83D30B068BAF80420B04BC4F83E00AC
:107810009A80FEF711F9AE4CAE4B1B78002B40F06E
:10782000B080AD4A136923F00403136130BFF3E75E
:10783000002C3FF415ACFDF78BFA8442BFF410AC7A
:10784000FDF786FA04F1400383423FF609AC204677
:10785000FDF7A6FA00283FF403AC636973B9FEF79D
:107860009BFCFDF7BDFA0446FDF7BAFA9A4B986007
:1078700023689D4663689847FFF7FCBB9DF88830F6
:10788000012BECD1FFF7E4BB5B6A98470446FEF797
:1078900083FC002C3FF4EEABE3E70DF11B02214625
:1078A0002C20FEF771FA00283FF410AD0DF11A02FA
:1078B00008A93C20FEF768FA9DF8323020B19DF807
:1078C000202062F30003FDE460F30003FAE4206883
:1078D000B060A288A379AAF804208AF80630BEE531
:1078E00008238DF8163004238DF88B307B4B1A88D3
:1078F0009B78ADF88D208DF88F301EE603217748F8
:1079000076E66FF3000359E7EFF3108672B60023B3
:107910000DF11D011A467248FDF742FC3046FEF794
:10792000F3F99DF81D3013B10023C8F80030D8F8E2
:107930000020EFF3108672B6C2F501739BB22244A9
:107940000DF11D016648FDF72BFC03463046FEF79E
:10795000DBF9D8F8000018440328C8F8000010D953
:10796000B4F8009009F1040398420AD306D860885D
:10797000002704280BD0062800F08E810023C8F8C9
:1079800000305748FDF764F90028BDD149E7227956
:1079900009F1FF33082A6F809BB200F0F4801BD8F6
:1079A000042A504E38D0062A4ED0022A1BD1022B70
:1079B00040F06E81B4F805700022B7F5007F28BF53
:1079C0004FF400770323114602203370A6F80170AC
:1079D000FEF7CEFB2F80D1E7102A00F0098104D8F2
:1079E0000A2A00F085800622A8E0122A00F0AF8063
:1079F000522AF8D1B4F80500FDF77AFA0028BDD074
:107A0000037B5B07BAD5A9F1030292B23649B4F8F9
:107A10000500FDF7BBFAB1E7042B40F08F80B4F806
:107A20000570B8B2FDF764FA58B1027A4168022ACB
:107A30000CBF012302230520737030707780032070
:107A400074E06F800A2279E04FF00203DFF89CB007
:107A5000A9F10702B4F80500B4F8071092B28DF846
:107A600048300BF102030093CDF844B0019211AB02
:107A70000CCBFDF7C1FE4FF6FF7A5045814604D18D
:107A80006368C3F30F236B80DCE74FF00203CDE99B
:107A900000778DF83830CDF834B001300DAB0CCB19
:107AA000514680B2FDF7A8FE072350451CBF00F1E8
:107AB000FF3080B23370A6F80190A6F803000022D0
:107AC0000420114632E000BF420100206A0100207C
:107AD000040200202C07002000ED00E0AEDF0000D3
:107AE000980B0020DA0100200B0200200D0200207C
:107AF000022B40F0CD80B4F80500FDF7F9F900281D
:107B00003DD0037B990714D52B882AAA013B22F884
:107B1000803D11A9B4F80500FDF712FA024648B9F4
:107B20000B21624BBDF8282019701199FEF720FB3C
:107B300024E702226368C3F30F236B8001265B4BAB
:107B4000207969881E70587059801A71B7E7B4F8A7
:107B50000500FDF7CDF990B1037B1A0711D5A9F106
:107B6000030292B25249B4F80500FDF70FFA02463B
:107B70000028DFD113214D4B19700146D6E70122B1
:107B8000D8E70322D6E7A9F1050B1FFA8BFBBBF15F
:107B9000020F02D0BBF1100F7CD1464BB4F80500A8
:107BA000B4F8071011930023CDE900338DF848B0E5
:107BB00011AB0CCBFDF720FE4FF6FF739842064643
:107BC0003FF45EAF2B882AAA043B22F88A3D0AA91B
:107BD000FDF7B6F9024608B16E80AFE70921334BD5
:107BE000BDF81E201970911C59705E800A9926E715
:107BF000A9F1050B1FFA8BFBBBF1020F02D0BBF101
:107C0000100F47D10027B4F80500B4F80710DFF8CB
:107C1000A4A0CDE900775FFA8BFBCDF844A08DF8E6
:107C200048B011AB0CCBFDF7E7FD4FF6FF794845A7
:107C300006463FF425AFCDE90077CDF83CA08DF89E
:107C400040B001300FAB0CCB494680B2FDF7D4FDFC
:107C500007462B8848452AAAA3F1060318BF00F15E
:107C6000FF3722F88A3D0AA9304618BFBFB2FDF798
:107C700067F902460028AFD111210C4BBDF81E2038
:107C80001970111D59705E809F800A9905204DE77B
:107C9000042253E7024651E7074B11A9119302232F
:107CA000CDE913771293FEF73BFA67E6DA0100207D
:107CB0000B0200200D02002010000020FEE7000053
:107CC00008B5FFF799F9064A064B07498B4201D3DD
:107CD000FCF750FA52F8040F43F8040BF6E700BF24
:107CE00080010100100000201001002038B504467A
:107CF000054D00F07BFB0FCC0FC594E80F0085E825
:107D00000F00002038BD00BF8C18002047F6FF731D
:107D10009A42F0B55ED003295ED8304BCE0013F8FE
:107D2000311098190129857819460DD1C3785B1B4C
:107D300023B1416831F91310914202DCE818C0B256
:107D4000F0BD013B1BB2F3E740680028F8D0B0F962
:107D50000030934204DBB0F902309342B8BF1346BF
:107D60008288FF2A19BFC8242827B0F90640B0F935
:107D70000870A4EB03040CBF0122002294FBF7F46B
:107D800014448A19567824B2721EA242A8BF224611
:107D90004FF47A7700EBC201CC888968013213FB7B
:107DA000041112B221EAE17101F5FA71B242B1FB9C
:107DB000F7F104DA00EBC204A4888C42EAD200EBAB
:107DC000C20232F8040C884228BF0846A84238BFD5
:107DD0002846B4E7FF20B3E70020B1E78C18002065
:107DE00070B50E46044678B1084D2B7863B9084B40
:107DF000186000F07FF83146204600F06BF8031C55
:107E000018BF01232B7070BD0020FCE7B0180020C4
:107E1000AC1800200846114600F080B82DE9F84360
:107E2000124D04460F46994601216B68002090468A
:107E300098470646C4B104F10C004B464246394609
:107E400001F0A8FB044618B92B68012098470446A6
:107E50003EB100F08BFB00B91CB100216B680846F5
:107E600098472046BDE8F8832046E6E72400002036
:107E70002DE9F041114D04460F466B6801210020A9
:107E8000904698470646BCB104F10C00424639467C
:107E900000F06FFA044618B92B6801209847044691
:107EA0003EB100F063FB00B91CB100216B680846CD
:107EB00098472046BDE8F0812046E7E724000020EF
:107EC0007047431E012B03D9031F58425841704786
:107ED0000120704738B504460D46002100F058FADD
:107EE0002946204601F0ECF900280CBF204600206E
:107EF00038BD000010B5044600F018FC44B1054A36
:107F0000D4F88830002B08BF1346034A136010BD15
:107F1000E36FFFDEC17E00001800002010B50C46A4
:107F200000F026FC1CB100F081FC0128FBD1BDE86B
:107F30001040024B00215B680320184724000020FA
:107F400000B10C3000F088BD00B10C3000F09CBDD9
:107F50000B8810B43BB143F2C822934228BF1346AA
:107F6000642B38BF64230B804B883BB143F2C8229B
:107F7000934228BF1346642B38BF64234B808B8801
:107F80003BB143F2C822934228BF1346642B38BF4B
:107F900064238B80CB883BB143F2C822934228BF35
:107FA0001346642B38BF642343F2C8240A89CB806C
:107FB0004B89A24228BF2246A34228BF23460A81FA
:107FC0004B8100B10C305DF8044B01F0D9B90000D1
:107FD0002DE9F04FDFF85C9183B004468B461746DD
:107FE0008DF8073001F0CAFBB9F8005001F0D4FB5E
:107FF000002869D14C4E636F326893425BD000F029
:1080000015FC012835D1DFF830A1226FDAF80030F5
:10801000606F002B5ED093425FD01D6811680268CC
:108020000DB18D4265D0204601F0ACF80023054625
:1080300001270093D4F88480B8F1000F65D00022A6
:108040000DF1070311462046C0476DB9D4E91C2342
:108050003360009BCAF8002003B987B32046C9F8F3
:1080600000B000F037FE054687B9284603B0BDE8EA
:10807000F08F012000F07CFB00F0D8FB0128FBD141
:108080002A4B00215B6803209847BCE7B5FA85F0CE
:108090003321400900F004FA9DF80710204601F052
:1080A0008FF8234BA4F10C00616F1B68984728469A
:1080B00003B0BDE8F08F002BA1D05D459FD1002516
:1080C000284603B0BDE8F08F0023174E336001F05F
:1080D0005BFB90E711680268A5E7316800299CD036
:1080E00081429AD1B5EB0B0318BF01230025009301
:1080F000A0E7316811B10968914201D0596892E74F
:108100000023012700931D4694E7617994F8BD3060
:108110009DF80720994228BF1946204600F071FDBE
:10812000002DA1D192E700BFBC1800202400002040
:1081300018000020B4180020B81800202DE9F04FD6
:10814000074683B00E46FDF76DFD7B6F814613B188
:108150003B89B3424AD03B6F002B55D09C68002C22
:1081600052D0D96800294FD0D7F884A0BAF1000FB7
:1081700052D04FF00008A7F10C0B4046454600E0F6
:108180009C6805EB450204EBC204E2890135B2426A
:1081900017D8228AB24214D3B4F91210B7F92201C7
:1081A0000193884201EAE17217DD97F8B41058464E
:1081B000FFF7ACFD7A79804682420ED92046019BBA
:1081C000D9688D42DCD338B901244846FDF79CFDBF
:1081D000204603B0BDE8F08F04460023224619462E
:1081E0003846D0473E817C6787F8BD800023314602
:1081F0001A463846FFF7ECFE04464846FDF784FD74
:10820000204603B0BDE8F08F03244846FDF77CFD0F
:10821000204603B0BDE8F08FD0465046554647F69D
:10822000FF7BA7F10C0A0EE097F8B4105046FFF759
:108230006DFD7A7980468242D4D92046019BD96867
:10824000A94215D99C6805EB450204EBC204E289FA
:108250000135B242F4D8228AB242F1D3B4F91210F5
:108260000193594501EAE172DED14FF0FF08B9E709
:108270000028A9D00446B5E7F8B50D1C18BF0125A4
:108280000E46074600241F21284600F009F9304613
:1082900001F090FF1F21284687F8C040C7E91C6401
:1082A00000F0FEF84FF6FF721820F168E3B28B423F
:1082B0000BD3154600230A4A29461360094A38465B
:1082C0001360FFF73BFF2846F8BDB56800FB03537A
:1082D000DD89954202D2002DECD02A460134E5E733
:1082E000B8180020BC180020008970470A7838B5FB
:1082F00005461046FFF7E5FD60B14C782046FFF7D4
:10830000E0FD38B12243530704D42846BDE8384085
:1083100000F0E8BB012038BD00B10C30FFF7E6BF2C
:1083200010B504460878FFF7CCFD58B14A781046DE
:10833000FFF7C7FD30B1042A04D02046BDE8104045
:1083400000F0F8BB012010BD00B10C30FFF7E8BF12
:1083500030B4DDE9024500B10C30CDE9024530BC56
:1083600000F090B9084601F0BFBB00B10C3000F03E
:10837000E5BA70B504460D461646FFF7DFFE30B984
:10838000324629462046BDE8704000F079BA70BDFB
:1083900001F00ABA38B5044600200D4601F008FF86
:1083A0004CB1D4F890304BB9294604F10C00BDE82B
:1083B000384000F04BBCD4F88430FFDE022038BDDA
:1083C00038B5044648880D4601F0F2FE4CB1D4F8A9
:1083D00090304BB9294604F10C00BDE8384000F05C
:1083E000D7BBD4F88430FFDE022038BD01F0E1BEF7
:1083F00038B505460C46FDF715FCA9696B690C40BC
:1084000023436B61FDF780FC00200CB9002138BDCF
:108410004FF48071FBE700B10C3000F004BE00B1F6
:108420000C3000F01ABE00004FF4007307B502AA2A
:1084300022F8023D0749FFF7F2FFBDF80630B3F519
:10844000007F05D1022808BF002003B05DF804FBBF
:108450000120FAE7C01800200846114600F00CBDC4
:1084600000B10C3000F0CABD38B5154658B100F166
:108470000C0411B1204600F00BFE35B12046BDE8DA
:10848000384000F053BE0446F3E738BD024B196094
:10849000024B1860FEE700BF1C00002020000020F7
:1084A00008B528B9034B1960034B1868FFF7EEFFB6
:1084B00008BD00BF1C000020AC180020034618B106
:1084C0005B7B0C3013B108475B78FFDE02207047FE
:1084D00010B5044601F0EEF92046BDE81040032136
:1084E00000F030B900B10C30FFF7F2BF0149FFF7DF
:1084F000E5BF00BF8D9800000149FFF7DFBF00BF57
:108500006598000070B5437806460C46B3B101F09B
:10851000FFF9616802460546304601F001FA20681D
:1085200090FAA0F0000A00F031FBA17A20892A46D7
:1085300081F0010101F04CFA002070BD0220FCE73F
:108540001FB500B10C30ADF80C309DF81830CDE9F6
:10855000011201A98DF80E30FFF7D4FF05B05DF8C8
:1085600004FB00207047002070470000014B187882
:10857000704700BFC01A0020024BD868C0F30360E8
:10858000704700BF000002A87047000038B16FF0CC
:10859000FF02034B10401A60A3F580531860704728
:1085A00020E000A8C2690F4B02F06002402A12D0FE
:1085B000602A04D0202A12D10122DA6107E071B1C9
:1085C0000A68012A0BD94A6942F00102DA61802265
:1085D000054B1A61704740F20112DA61F7E7002299
:1085E000DA61F4E7201F00B0000002A837B50C469E
:1085F000164D39B90A46072104F07AFDC5E9004451
:1086000003B030BD0722114604F072FD0722104B63
:1086100002A81A60237901212B70637940F8043D88
:1086200004F082FD019BC2B2D34000F00F0040EA8B
:1086300003106870A379074AAB70E379EB70236885
:108640006B60237901331362DAE700BF181F00B0B3
:108650000C6000A8004000A800F01803182B084B7D
:1086600002D100221A627047010702D501221A6264
:108670007047C206F5D540F201121A62704700BF7A
:10868000201F00B02DE9F34BDDE90ABCD0E93689A3
:10869000044689EA0C0188EA0B0000EA020501EAB7
:1086A000030685EA080086EA090100254FF0000864
:1086B00040F20119C4E9360122F001000BEA00067C
:1086C0000CEA03071946CDE9005549EA070348EAD1
:1086D000060203F0B5FB2378DB0720D5D4E9362367
:1086E000002003F4807150EA010318D04FF4803168
:1086F0002046FFF77DFE237865F300032370D4E95D
:10870000362302EA000503EA010655EA060306D00D
:1087100005492A4609683346A4F10C008847002021
:1087200002B0BDE8F08B00BF2C000020034A0368B4
:10873000002B08BF1346024A13607047898500006A
:108740002C00002031F00F0003BF054A01F00F019B
:10875000D368012002BF23F00F030B43D36070479F
:10876000201F00B0014B002019617047201F00B08E
:108770002DE9F34103284BD8DFE800F046023E42E2
:10878000002401262546FDF74DFA074603F034FD87
:10879000804640B100230022CDE9003301200023B0
:1087A000002103F04DFB2946304603F0BFFE224670
:1087B0002946304603F01AFFB8F1000F16D0164BC9
:1087C0001B6803B10C33154A126F520208D4DB69DF
:1087D00013F0800F4FF4001314BF114A114A1360B5
:1087E00011490868FFF7D2FE00230B60384602B03B
:1087F000BDE8F041FDF788BA012500242E46C2E706
:10880000012425462646BEE7002425462646BAE72B
:1088100002B0BDE8F08100BFAC180020000002A843
:10882000205001A8206001A8E81A002008B5FFF731
:10883000A3FE01380B280DD8DFE800F0141406144D
:10884000141414080A080808032008BD0420FCE7D3
:108850000520FAE7044B5B6913F0060F14BF0420F0
:108860000120F2E70220F0E700C001A8034B1B6FD4
:1088700013F0A00F0CBF012000207047000002A8D9
:10888000114603F003BD00000138C0B202284FF0CA
:1088900060518EBF00220D4B53F820200C4B00205E
:1088A0001960A3F580531A604FF400124FF0805105
:1088B0001A60084A936F23F0060343F0040393679A
:1088C000054B19600423C2F88C30704790E000001B
:1088D000206001A8004000A87C1002A8114B1B7862
:1088E00013B10622104B1A600022104BC3F88C20E3
:1088F0004FF0805203F5F0337C331A600C4B1B6F42
:1089000013F4800F0B4B08D1C26912F0800F4FF4A3
:10891000001216BF08491A600A604FF0605200202A
:108920001A607047C81A0020786000A8004000A8AC
:10893000000002A8206001A8205001A870B51546CB
:10894000C269064682EA05030B405340C36108072B
:108950000C4606D5082315F0080F14BF334A344AD5
:108960001360E10706D5012315F0010F14BF2F4A4C
:108970002F4A136062070CD503F0C0FD4FF400735B
:1089800015F0040F14BF2B4A2B4A136004222B4B03
:108990001A60A30706D5022315F0020F14BF234A5D
:1089A000234A1360E00606D515F0100F14BF00220D
:1089B0001B22234B5A6521061ED52A0625D54FF4C6
:1089C0000012204B1A60012203F587531A60FDF74D
:1089D00029F90146FFF7D0FD032806D11A4AD368CA
:1089E00023F0F00343F0E003D36040F20122144B84
:1089F0000846DA62FDF788F914F0600F03D0B16F12
:108A00003046FFF7CFFD002070BD104B1B6F5B029F
:108A1000F2D44FF4001196F890300D4A1160002BFB
:108A2000EAD001220B4B1A60E6E700BF4C5000A8C9
:108A30004C6000A8245001A8246001A8702002A85E
:108A4000004000A8205001A8201F00B0000002A88C
:108A5000206001A8005101A8014B186A02F064BC13
:108A6000004001A8836F53B11A68022A07D9586AD7
:108A7000C0F3072030B11B6AB3FBF0F070470C382D
:108A8000FFF75EBA70470000014B186A02F074BC31
:108A9000004001A8826F62B11368022B09D9536AA2
:108AA000C3F3072040B1126ADBB25343B3FBF0F0CB
:108AB00070470C38FFF748BA70470000064BD3F8F0
:108AC00038311B0401D4FFF7E5BF0A78034B044893
:108AD000012A18BF18467047004001A820A10700CE
:108AE00048E80100F8B5114D0F784C782E68FDF775
:108AF00099F802460E49FFF73FFD0B2808D00C28D5
:108B000001D0092807D11046FDF7FEF80220F8BD74
:108B10000B6FDB03EFD42406B3B244EA07441C43D3
:108B200010462C60FDF7F0F80020F0E7CC1E00B0F6
:108B3000000002A8F8B5134E0C784F783568FDF7A1
:108B400071F802461049FFF717FD033804280DD8C5
:108B5000DFE800F0030C030308001046FDF7D4F82B
:108B60000220F8BDD1F83031002BECD12B0C1B04C6
:108B70001C4344EA072410463460FDF7C5F8002082
:108B8000EFE700BFCC1E00B0000002A802F052BC0C
:108B90002DE9F0410F780446032F0D460BD1002636
:108BA0005FFA86F8404601F077FB08B1474602E0DD
:108BB0000136032EF4D16B8804F1B406A4F8B63064
:108BC000AB8884F8B470A4F8B830AB883046C4F8E9
:108BD0003431FF23A37101F077FB054670B93046AD
:108BE00001F050FB054648B9204601F041FD012146
:108BF000A4F8B80004F1880002F0E2FE2846BDE8BF
:108C0000F08170B5054690F8B4000C46042816466D
:108C100018D0FF2918D001F035FCA04204D895F8EF
:108C2000B40001F02FFC0446AC71204601F0CAFCF0
:108C3000A0F1FF035C425C4116B9284601F036FC06
:108C4000204670BD0224FBE70124F9E738B590F80F
:108C5000B4300446042B38D0456F417195B3D0F839
:108C600084301BB990F8BD308B4205D3B4F9222172
:108C7000B5F912309A4211DD002294F8BD10204659
:108C8000FFF7BFFF0546D8B960672046FFF72CFB0A
:108C900001462046BDE83840FFF750BA0022204682
:108CA000FFF7AFFF054658B9094B1B78022B07D8D1
:108CB000204601F0DDFC012104F1880002F080FE75
:108CC000284638BDFF238371FAE70225F8E700BF85
:108CD0003A0000202DE93048436A88B0012B69D062
:108CE000044601254D4902F037F9626F23899189C5
:108CF0008DF80A505B1A9BB2D2E9012101FB0321D6
:108D0000474AA0671268ADF808309042019116D02A
:108D100058B103684BB103693BB19968D3E90023AB
:108D2000C4F89410C4E9222304E00023C4E92233E8
:108D3000C4F8943001462046FFF734FCA26F72B3AA
:108D40001368032B2BD903AB9DF80A200199204609
:108D500002F0BAFB002832D1324AFFF70DFC01388D
:108D60000B28FAD9536913F0060FF6D103A901A80D
:108D700002F044FD054610BB23782B4960F3000345
:108D8000626F23700B68526911685A1C1CD0481C12
:108D900029D08B1C0FD0204600F05EFE0BE0214A4C
:108DA000FFF7EAFB01380B28FAD9536913F0060FD5
:108DB000C9D0F5E70025284608B0BDE8308802256F
:108DC000284608B0BDE830884A1CE2D1D4E93623F1
:108DD000002003F4807150EA010309D1237843F0A5
:108DE00001032370E7E71946204600F035FEEDE762
:108DF0004FF480312046FFF7FBFAD4E9362302EA2C
:108E0000000B03EA010C5BEA0C03D4D007495A4675
:108E10006346A4F10C0009688847CCE7FC1F00B04A
:108E2000D41A002000C001A8500000202C0000200F
:108E30004FF4807104F06EB938B590F8C040054623
:108E4000A4B1FCF7EFFE1F22094B013C1A6014404D
:108E5000A3F580531C60D5F8C420064B9A66D5F85C
:108E6000C820DA66BDE83840FCF74EBF38BD00BF09
:108E7000246001A8004001A837B50DF106020D4697
:108E800001F0DAF8044688B185B12B7813F0F70FBA
:108E90000CD0FCF7C7FE074BBDF806201C60064B44
:108EA0001A806A88054B1A80FCF72EFF204603B013
:108EB00030BD00BFCC1A0020D01A0020CA1A0020F2
:108EC0002DE9F74306461546084619B9012003B0B7
:108ED000BDE8F083002AF9D0032905D80022114605
:108EE00001F0AAF80028F1D0038882781C0402F06F
:108EF00007017CD4A1F1070C077990F80580C4889C
:108F0000DCF1000040EB0C000529287394BF002021
:108F1000C2F300106873C2F380102874C2F3C0005B
:108F2000C2F340126874AA7467BB96F8AE20013A87
:108F3000EA74F269D20654D40639012951D82D4A6F
:108F4000063B526D9BB2062269462B4800F0E1FEBB
:108F5000E3049DF9007018D49DF801004400E0B2CC
:108F6000D6F880300BB139469847E873AF736A7C06
:108F7000DDF80210304602F03FFE062328602B7217
:108F80000020A4E7013FEF74D3E7B36FC4F30B04F1
:108F9000E40093B11A68022A0FD95B6A13F0FF0349
:108FA00001D0B4FBF3F4A04517D8C4B1C8EB08282E
:108FB000B8FBF4F4E443E0B2D2E73046FFF752FDE9
:108FC00005F1110181463046FFF778FD0028EAD00F
:108FD00009FB04F4B4FBF0F4E5E70020C0E7204609
:108FE000BEE7002080232860EB8128726FE7022013
:108FF0006DE700BF004000A838400044F8B50646C1
:109000001446177AFFF75CFF054650B9237A43B13F
:1090100004F1110127723046FFF750FD214602F09E
:10902000B7FD2846F8BDB3FA83F3192B084610B5EF
:10903000114610D0C3F11902D2B2062A28BF062267
:109040000124931D9C40A4B2A14228BF214600F0F8
:10905000E3FD204610BD0022F2E70846118810B556
:109060003F2913D9B1FA81F119290DD0C1F11901A4
:10907000C9B2062928BF062101238C1DA3401380F5
:1090800000F0E8FD002010BD0021F5E70120FAE71F
:109090000121084A084BD3F8EC3091624FF400519B
:1090A00002F5005224325B07116042BF0422034BD9
:1090B0001A6070470840004400400044EC500044EF
:1090C00038B54B7805460C46BBB9FFF707FCA378CB
:1090D000BBB940F6FF72114B5A62E378ABB940F668
:1090E000FF720F4B5A6260220E4B1A60402203F54A
:1090F000E83324331A60002038BD1846FFF7C4FB5C
:10910000E5E72846FFF7C4FFE7E76022064B1A6051
:10911000402203F5D83324331A60ECE708400044BA
:10912000384000444C5000A84C6000A838B54FF4BB
:10913000806400200A4BD3F8EC5003F503532C3322
:109140001C60084B186003F023FA4FF40052064BE2
:109150001A606A0544BFA3F577631C6038BD00BF81
:1091600000400044CC1A00205C600044082310B189
:10917000024A13607047024A13607047701002A8D9
:10918000702002A80C4B10B5084614460B49D3F8C2
:10919000B4200A60D3F8B8204A604FF44071C3F895
:1091A000B410C3F8B810012102F044F820460121A0
:1091B00002F040F8002010BD004000A8E01A002096
:1091C000334AF8B5D2F8B430856FB3F5407F0BBFA2
:1091D000304B314A1B68C3F381230CBFC2F8B43053
:1091E00013702B4A0F46D2F8B8308189B3F5407F0F
:1091F0000BBF284B284A5B68C3F3812314BF53700D
:10920000C2F8B8304FF6FF739942044603D0234B9F
:109210001B6803B19847224E3368AB4232D0214BD2
:109220001B682BB185B3296801B1A968204698470E
:10923000A36F13B11A68022A18D8A4F10C00FEF724
:1092400083FE02F02FFB0725204601F011FA27B913
:10925000294604F1880002F0B3FB06200122A46F26
:109260001149124B346008601A70F8BD5A6AC2F393
:1092700007200028E5D01B6AD2B202FB03F2B2FB42
:10928000F0F0DEE70125DFE7294620469847CFE7E3
:10929000004000A8E01A0020D81A0020DC1A0020A4
:1092A000D41A0020C41A0020786000A8C81A002030
:1092B00048220021014804F008BD00BFD01E00B0C4
:1092C0002DE9F34188460446002852D04FF064123D
:1092D0000423C0E92A22C0F8B020FF2280F8C03061
:1092E0004FF6FF738274244A4FF0FF37C374A0F81F
:1092F0002A3113804FF04023C0F840714774D3F8EF
:10930000843000F10C0603F0C003802B07832ED1BC
:10931000304602F079FF3046FFF7CAFF6022174B54
:1093200004F5A471DA643046FFF7CAFEA26A054666
:1093300039463046FFF702FB0E230022CDE9003309
:1093400040F201131046194602F07AFD01F066F86A
:109350004DB92046FFF768F80546B8F1000F02D076
:1093600008B92046C047284602B0BDE8F081022572
:10937000F9E784F8B400FFDEEC1A0020004000A8F2
:10938000B0F8B8308A885A3310B59BB2CC889A426C
:1093900038BF1A46A34238BF23468A80CB800C8848
:1093A000A0F8A0304B88A0F89C40A0F8A4300B890E
:1093B000A0F8A220A0F898304B898830438207217A
:1093C00002F0FEFA002010BD4FF6FF72B0F81E3119
:1093D000934211D0094A0A49526E100CC2F301128D
:1093E0000132B3FBF2F30880064A074907481B0421
:1093F000086013600020704703207047004001A8F8
:10940000EC1A0020645001A8646001A80000FFFF6E
:10941000F7B505460E461446FFF728FA002800F077
:109420009D804FF40061284603F074FE38B14FF47C
:10943000007201214A4B08461A60FEF76FFD314663
:109440002846FEF77BFE0646002870D12B789B0647
:1094500001D4002C44D04FF44062424B1A6014F007
:10946000020204D1404B41491B789B020B604FF430
:1094700040613F4B196022B93B4B3E4A5B789B02EF
:10948000136003F03BF84FF4806314F0040F14BF33
:10949000394A3A4A324F13600422402314F0400FF5
:1094A0003A6014BF364A374A20461360FFF7D4F8B3
:1094B0002846FFF7BDFC38B14FF4807314F0010F5C
:1094C00016BF314A3B601360A70602D52846FFF756
:1094D0007BFF003418BF01242B7864F345132B70F5
:1094E000284600F069F9F8B12846FFF7A1FCD8B189
:1094F0004FF40031284603F00DFE00280CBF012375
:109500000223032201A9214800F003FC9DF8041066
:109510001F4A01F00703052B9DF8053012D10807FB
:1095200008D443F480735360002000F041FE3046BD
:1095300003B0F0BD59070BD49DF8063043F4807397
:109540005360F1E703F03001202904D1DB07F3D5A4
:109550004FF48073F4E79DF80630F1E70226E6E762
:10956000702002A8B46000A8D81A0020B45000A847
:10957000B86000A8B85000A8245001A8246001A831
:1095800088D000A888E000A8701002A80840004415
:10959000AC1E00B073B506461D46FFF739FF044602
:1095A00088B995E803006A4682E803009DF8043014
:1095B000B6F8A210012B034607D1884205D20094C9
:1095C000104602F04FFF02B070BD5B1A0093F7E740
:1095D0004FF6FF71084A10B513888B4209D007482F
:1095E000074C1B040460A0F580500360002011802C
:1095F00010BD0320FCE700BFEC1A0020646001A846
:109600000000FFFF504B2DE9F3471C6881468A4656
:10961000154604B10C34012040F2011100EA0902A0
:1096200001EA0A0313434BD000220AF0010313435B
:1096300009D0464B1B6803F07F43B3F1007F02BFA4
:109640000222434B1A60002309F00102134328D081
:109650004FF000080022002300210120CDE90088FE
:1096600002F0EEFB012001F0A9FE414660810120DD
:10967000FEF754FC374B1B6F5A0208D4E36913F012
:10968000800F4FF4001314BF334A344A1360344937
:109690000868FEF77BFF00230B60237843F0040388
:1096A000237000220AF48073134309D0012120465D
:1096B000FEF79EFE2AF4807749EA000947EA010A8C
:1096C000D4E9362309EA02000AEA030102460B46FE
:1096D000134306460F4617D0224BA4F10C0019681D
:1096E0003B468847002306F0080213431CBF0022B4
:1096F0001D4B06F0FF4607F0110718BF1A6056EA27
:10970000070301D0FFF764FFEB070FD51749184A8D
:1097100008680021136811600121164A117003B115
:109720009847154B00215B680220984715F00E0FF3
:1097300006D03B21002002B0BDE8F047FEF7B0BEE6
:1097400002B0BDE8F08700BFAC180020CC1E00B00E
:10975000081002A8000002A8205001A8206001A85B
:10976000E81A00202C000020CC1A0020F41A002057
:10977000F01A0020EE1A002024000020014BD3F83C
:109780004C3170470080E00F4FF40022014B1A600B
:10979000704700BF702002A8024B186FC0F3C04092
:1097A000704700BF000002A8014B024A1A607047D0
:1097B000C41A0020ED850000802103F0ABBC00003E
:1097C00047F6FE7310B5144C11F0010F2360C46A04
:1097D00003EA4403114C23604FF00F04104B1C604C
:1097E000A3F5805316D0AAB901221A604FF0FF32B8
:1097F0000C4B1A60826AA3F580531A604FF0F04256
:1098000003F580530C331A60C378DB061340064A15
:10981000136010BD0222E8E7306201A8305201A8AF
:10982000646001A8046101A8105101A808B543783B
:10983000033BDBB2032B96BF084A0021D15CFEF745
:1098400091FF012001F0CCF84FF4F062044B1A6054
:109850004FF40072A3F580531A6008BD9CE000002D
:109860004C6000A8012310B580F890302823A0F8A0
:109870009A300423044643700349FEF7FDFC20465A
:10988000FFF7D4FF002010BDE4FF0000012310B556
:1098900080F890302823A0F89A30022304464370C1
:1098A0000349FEF7E9FC2046FFF7C0FF002010BD8A
:1098B00088FB000038B5124D0446286801F08CFC86
:1098C000AB68186801F088FC0E4BDA681AB19B6827
:1098D000186801F081FC0C4BDA6842B19B6818688B
:1098E00001F07AFC094B9B68186801F075FC204672
:1098F000FFF7CCFF2046BDE83840FFF797BF00BF19
:1099000088FB0000E4FF0000A8F8000018FA00003F
:109910004078053801288CBF0020012070470000E6
:10992000F8B5D0F8C43004468B420D46164603D134
:1099300090F8C030202B37D0EF073CD5002E0CBF5D
:109940005522AA221F4805F0030383F001030344B4
:109950009F781E212B4603F0070C10F80CC001392C
:1099600067444FEA5303F6D16FF48170164B7B4383
:109970009B0C0344E36206BB95FAA5F392FAA2F2AC
:109980005908120F5B0041EAC27203F00203A2629F
:10999000E370202384F8C0300023C4F8C450C4F816
:1099A000C8302046FFF748FA324629462046BDE82F
:1099B000F840FFF705BFAA22C4E7044BE170A36299
:1099C000E7E700BFD0E0000036FC1000B7563512C4
:1099D00010B50724124B1C60124B134C59B1442193
:1099E00040F0400059639863012323604FF48043A3
:1099F0007AB90E4A0EE05963996321604FF48041B1
:109A00000B4B0C4A19604FF4804313605360936012
:109A100010BD074A13604FF48043074AF5E700BFC3
:109A20003C6000A8004000A83C5000A8B46000A81A
:109A3000B45000A8B85000A8B86000A8054BC3F8FF
:109A40005012C3F8541219B142F20102C3F828228D
:109A5000704700BF004001A838B50C46054600F02D
:109A60007FF82146FFF7EAFF45B16B6F33B15B69C1
:109A700023B1621C08BF6FF001041C60002038BDD8
:109A800038B505460C4600F06BF8074B40B9D3F8E3
:109A9000481204B121602846BDE83840FFF7DCBF1A
:109AA000D3F84C12F5E700BF0080E00F07B50A4B72
:109AB0001A7808236AB9094A136000230193084BF6
:109AC000186800B10C3001A9FFF7DAFF03B05DF8A8
:109AD00004FB044AF0E700BF30000020FC1302A89A
